:020000041000EA
:1000000000B5324B212058609868022188439860DF
:10001000D860186158612E4B002199600221596106
:100020000121F02299502B49196001219960352056
:1000300000F044F80222904214D00621196600F024
:1000400034F8196E01211966002018661A6600F04E
:100050002CF8196E196E196E052000F02FF8012189
:100060000842F9D1002199601B49196000215960AB
:100070001A491B48016001219960EB211966A021F2
:10008000196600F012F800219960164914480160C1
:100090000121996001BC002800D000471248134993
:1000A000086003C880F30888084703B5996A0420EC
:1000B0000142FBD001200142F8D103BD02B5186610
:1000C0001866FFF7F2FF186E186E02BD00000240BE
:1000D000000000180000070000035F00212200005C
:1000E000F4000018222000A00001001008ED00E03C
:1000F00000000000000000000000000074B24E7A12
:1001000000200420F7010010C3010010C5010010F9
:10011000C1010010C1010010C1010010C101001097
:10012000C1010010C1010010C1010010C701001081
:10013000C1010010C1010010C9010010CB01001065
:10014000CD010010CD010010CD010010CD01001037
:10015000CD010010CD010010CD010010CD01001027
:10016000CD010010CD010010CD010010CD01001017
:10017000CD010010CD010010CD010010CD01001007
:10018000CD010010CD010010CD010010CD010010F7
:10019000CD010010CD010010CD010010CD010010E7
:1001A000CD010010CD010010CD010010CD010010D7
:1001B000CD010010CD010010CD010010CD010010C7
:1001C00000BE00BE00BE00BE00BE00BEEFF3058054
:1001D000103800BEF2EB8871646F0010846F00105D
:1001E0003402001090A31AE700201F49086006C8D7
:1001F00081F3088810471D48006800282FD10DA4FE
:100200000ECC002902D000F012F8F9E71849194A7B
:10021000002000E001C19142FCD1174988471749ED
:1002200088471749884700BEFDE701C901C29A42C5
:10023000FBD37047846F0010C000002034080020FA
:10024000F87600100000042000000420F87600106A
:10025000001004200010042000000000704709482E
:1002600003F092FD0047000008ED00E0000000D020
:1002700038080020EC0D0020D5290010F9050010E9
:10028000952900105756000006005250ABB360533A
:10029000D066001006005250861C0302E066001073
:1002A000060052505422A29DF866001005005250DC
:1002B000DE65F468F8760010F8B5C04606480749D0
:1002C000091A8B10C90FC91810B5491003D0044B77
:1002D000002B00D0984710BD3408002034080020BF
:1002E00000000000054B10B5002B03D00449054861
:1002F00000E000BFFFF7E2FF10BDC04600000000B5
:10030000980B0020685A001070B506000D1C081CE0
:1003100004F08CF984B2002C12D0200004F05EF9B5
:10032000011C281C04F039F98721C90504F04FF994
:1003300004F07CF9C3B21B0224041C43346070BD7A
:100340000023F8E710B504001022002104F0E4F9BE
:1003500080235B022360F8235B0263608023DB025F
:10036000A360C0231B03A360200010BD70B5040070
:100370000D00FFF7E7FFEA1C636809490B40ED0138
:100380002B43120313436360E268D200D20880213A
:1003900089050A43E260034A13406360200070BD90
:1003A0007F00FEFFFFFFFF9F0A4A137801214B40A9
:1003B000DBB213701378002B06D0D0231B068022EB
:1003C00092035A6101207047D0231B0680229203BA
:1003D0009A61F7E7E40D0020490700D47047024B0B
:1003E00001221A60FAE7C0463802002010B5040066
:1003F0001F2100F039FC00220021200000F04CFCFD
:100400000021200000F018FD10BDF0B585B00500FA
:100410000C0016001F0001F047FC0A9B0293019795
:1004200000962A00230001F04FFD05B0F0BD00004A
:10043000F0B5C64600B586B004000E0090461D001B
:10044000234B984242D00721280000F00DFC0127E1
:10045000009701232A003100200004F0D3FB41461D
:1004600002A8FFF783FF059B1A4A1340AD021D4304
:1004700005950499184B0B40184A13430493184BE5
:1004800019400A438023DB0513430493052002F03F
:10049000B1F904F0A3F8051C12490C9804F097F880
:1004A000011C281C04F07FF8011C02A8FFF72CFF98
:1004B00002AB42463100200004F0F6FB2368B7404F
:1004C0003B43236006B080BCB846F0BD0621BBE7C5
:1004D00000002050FF83FFFFFFFFF5C100000A105E
:1004E000FFFFF50100002041F0B583B0050012497F
:1004F000124E300004F06AFB0400114F3E600021F0
:10050000300004F045FB01000E4B186038680E4BBC
:1005100000932B002200FFF78BFF002308E00B4A1B
:100520005900C9185418002060708854A070013315
:10053000182BF4D903B0F0BD18680010000020504B
:10054000940B0020D00D002000504349480B0020A0
:1005500030B5044D440020182C002D186970225429
:10056000AB7030BD480B002010B5002406E000231E
:10057000002200212000FFF7EBFF0134182CF6D9F0
:1005800010BD000070B5002528E0184B1868184B06
:100590001C68184B6A005219D65C42682100103161
:1005A00001238B401342F8D1221D92001650114AAC
:1005B000690049195218517842681342FCD1221D32
:1005C000920011500B4A69004919521891784268FB
:1005D0001342FCD10434A40021500135182DD4D984
:1005E0006420002101F004FD70BDC046940B002082
:1005F000D00D0020480B002070B5BE4CA54404F07F
:1006000017FABD48BD4904F0C3FC03210E2000F0D9
:100610002BFB03210F2000F027FB002201210E20DD
:1006200000F03AFB002201210F2000F035FB00F022
:100630009BFA082200218EA804F06EF87F236A46F8
:10064000AF49521813707C3B6A46AE49521813707A
:100650008EA800F03FFA8022920000210EA804F03C
:100660005BF88EA90EA800F095FAFA20800001F040
:10067000CCFC052000F0F8FB062000F0F5FB16206E
:1006800000F0F2FBD02424062023A3622033A362CF
:100690008023DB03A36200220121052000F0FCFA85
:1006A00000220121062000F0F7FA00220121162085
:1006B00000F0F2FA152000F0D7FB80239B03636261
:1006C000914B002200210EA800F0B8FA8EA90EA8C6
:1006D00000F060FA0720FFF707FFFFF745FF04F07F
:1006E0008FFC1B20FFF782FE884B0122042105208E
:1006F00000F046FB44E1864B002200210EA800F0EA
:100700009DFA844B082200210EA800F097FA824B34
:10071000102200210EA800F091FA804B182200212F
:100720000EA800F08BFA8EA90EA800F033FA7C4BCD
:100730001A6880235B015340E022D2011340794ABA
:100740001360794B04221A60754B1B68DB05FBD5DF
:10075000734B59688CB20904090C744804F05CF9B5
:10076000FA231B019C421DD8312C00D90DE1704B9E
:1007700003221A606F4C2300053200210EA800F0FE
:100780005DFA2300102200210EA800F057FA230082
:10079000182200210EA800F051FA8EA90EA800F030
:1007A000F9F9F2E0624B02221A60624D2B00063228
:1007B00000210EA800F042FA2B00102200210EA802
:1007C00000F03CFA2B00182200210EA800F036FAA7
:1007D0008EA90EA800F0DEF9C6E7574B00220021D3
:1007E0000EA800F02BFA8EA90EA800F0D3F9002075
:1007F00004F04AFF04F024FF04F02CFF052103F06D
:10080000EFFA01314C01641AA4006418E4004B486B
:1008100004F002F9200001F0F8FB002406E00023B8
:10082000FF2200212000FFF793FE0134182CF6D997
:10083000FFF7A8FE424B9C6A424804F0BDF8404BCB
:100840009B6A1B1B404A934248D8D0231B065B6817
:100850005B06F4D43A4B9B6A1C1BFA2189002000EA
:1008600003F0E6FA06003948310004F0D5F8314DBE
:100870002B00082200210EA800F0E0F92B00102226
:1008800000210EA800F0DAF92B00182200210EA892
:1008900000F0D4F98EA90EA800F07CF92C4B0822A8
:1008A00000210EA800F0CAF92A49320008A803F076
:1008B0003DFA294808A904F0AFF808AB102200213E
:1008C0000EA800F0BBF9254B102228210EA800F03D
:1008D000B5F98EA90EA800F05DF900E00024002C07
:1008E00004D0FFF741FEFFF74DFE53E01C4804F033
:1008F00063F8F6E7C0FDFFFFD0020020801A060073
:10090000390200003B020000685A0010D9030010B1
:10091000785A00108C5A00109C5A0010B05A0010DF
:1009200000C0044000D0044000E00440C05A001061
:1009300038020020D85A0010EC5A0010005B00105A
:1009400000400540345B00103F4B4C00685B0010DA
:10095000945B0010A45B0010A85B0010C45B001047
:10096000CC5B00100024002C02D14C4804F024F889
:10097000D0231B06802292039A6108A801F0D2FAC4
:10098000474B1B68012B00D1B5E6454B1B68022B7A
:1009900000D122E7424B1B68032BF1D1414B0022CF
:1009A00000210EA800F04AF98EA90EA800F0F2F876
:1009B000002004F069FE04F043FE04F04BFE052124
:1009C00003F00EFA01314C01641AA4006418E4002B
:1009D000354804F021F8200001F017FB334A08AB3A
:1009E0000093002332200021FFF70FFD304B9C6A5B
:1009F000304803F0E1FF2E4B9B6A1B1B2E4A9342AB
:100A0000B0D8D0231B065B685B06F4D4284B9B6AE6
:100A10001C1B08A801F086FAFA218900200003F0C7
:100A200007FA06002548310003F0F6FF244D2B009D
:100A3000082200210EA800F001F92B00102200214D
:100A40000EA800F0FBF82B00182200210EA800F0E1
:100A5000F5F88EA90EA800F09DF81A4B0822002187
:100A60000EA800F0EBF81849320003A803F05EF975
:100A7000164803A903F0D0FF03AB102200210EA8F3
:100A800000F0DCF8124B102228210EA800F0D6F856
:100A90008EA90EA800F07EF865E7C046CC5B00107A
:100AA000380200200C5C0010005B0010A90300104D
:100AB00000400540345B00103F4B4C00685B001069
:100AC000D85A0010945B0010A45B0010A85B0010C3
:100AD000C45B001042780378D21A0132C37881785F
:100AE0005B1A0133534343607047000000B585B083
:100AF00080236A4613735073044800230093023323
:100B000003AA3C2104F070FA05B000BDD002002019
:100B100070B506000D00002403E0305DFFF7E6FF2E
:100B20000134AC42F9DB70BDF0B583B006000D00B6
:100B30004F1C380003F0DAFD04004023037001303D
:100B40002A00310003F0EEFD0648002300933B002D
:100B500022003C2104F048FA200003F0D1FD03B04C
:100B6000F0BDC046D002002070B588B001A8084A88
:100B70001300060032CB32C61A00330032CA32C329
:100B800012881A801A21FFF7C3FF08B070BDC04653
:100B90005069001030B583B005000C0021236A466F
:100BA00013700B7853704B7893702223D3708B782B
:100BB0001371CB78537106216846FFF7A9FF61686E
:100BC0002800FFF7B1FF03B030BD000030B5782931
:100BD0002EDC182A2CDCD51707242C40A218D210A2
:100BE000144CE55C03242C40022C0DD0DCB2250013
:100BF000413DEDB2192D09D9303CE4B2092C0CD895
:100C0000FF251D40153D04E0203BEFE7FF251D407B
:100C1000403DD2015118002208E00025F9E7EB0021
:100C20009B18054CE35C435401320131072AF6DD81
:100C300030BDC046616E001028680010F8B507008E
:100C40000C0016001D0078290DDC182A08DD0AE0CA
:100C50000135320021003800FFF7B8FF083424B214
:100C60002B78002BF4D1F8BD10B58300084A9446C8
:100C700063441A6840246240803414408022520148
:100C800013431C60C000034B9C466044416010BD90
:100C900004C001400040014080000B4B9C46604472
:100CA00000290DD00823002A0CD004221343026827
:100CB00053400C221A4080235B0103431A607047A3
:100CC0000023F0E70022F1E704C0014070B5040002
:100CD000D0231B061D680D4BAA00D358002B0AD049
:100CE000002803D0094BAD00EC5070BD08490D2021
:100CF00000F014FBF6E70028F7D0044BAD00E850F5
:100D0000034900220D2000F001FAEEE7C80A002096
:100D1000A10D0010072303409B00C00899403C3000
:100D20008000014BC150704700400140F8B50700FA
:100D30000C0016001D00FFF7EDFFFB089B00ED18EF
:100D40000720384080008440002E04D080239B017F
:100D50002B431C60F8BDC0239B012B431C60F9E7AB
:100D600010B5D0231B061B68002B03D0024BFFF7E6
:100D7000DDFF10BD014BFAE7304101400041014069
:100D800070B514001D00FFF7EBFF2800FFF79EFF72
:100D9000002C00D170BD01210D2000F07DF9F9E794
:100DA000F0B5D6464F464646C0B5D0231B061F6851
:100DB0001D4BBA00D3589846002F03D01B4B9946C1
:100DC000002623E01A4B9946FAE724090135002C46
:100DD0001BD033000833AB4217D90F231A0022402F
:100DE00092462342F1D0134BBA00D2580123AB40B4
:100DF0001342EAD151462800FFF78CFF4346002BEF
:100E0000E3D051462800C047DFE708361D2E06D83C
:100E1000F30808339B004A469C583500D7E7E0BCEE
:100E2000BA46B146A846F0BDC80A0020304101408C
:100E300000410140C00B0020002909D08000094B6F
:100E40009C46604480239B01034340221A60704704
:100E50008000044B9C466044C0239B010343402216
:100E60001A60F4E704C0014010B501238340D0228A
:100E70001206936293610521FFF7F6FE10BD000094
:100E8000034B1B6802201840431E9841C0B27047B4
:100E900000C00640EFF3108072B6034B1B68002BB6
:100EA000FBD0BFF35F8F70472C0100D0BFF35F8F83
:100EB000024B00221A6080F3108870472C0100D08A
:100EC000F8B506000C001500FFF7E4FFE308F7187B
:100ED000F15C07222240012393400B4205D1DBB293
:100EE0000B433B70FFF7E2FFF8BD2100280001F043
:100EF00035FEF0B583B00600019114001F00FFF726
:100F0000C9FF00E00134BC420CD8E308F518F35CDB
:100F10000721214001228A401A42F3D1D2B21A435A
:100F20002A7001E001246442FFF7C0FF002C02DBBD
:100F3000200003B0F0BD019B002BF9D0089801F010
:100F40000DFE0000002307E0054A9A189200BFF347
:100F50005F8F0021116001331F2BF5D97047C04608
:100F600040000034054A1078431CDBB21370172B85
:100F700002D9130010221A707047C0463C020020AC
:100F8000074B9B68103080001950BFF35F8FBFF391
:100F90005F8F044B0021196082F310887047C046B0
:100FA00000ED00E0240100D010B50388DA0A1C2A05
:100FB00005D15B055B1502335B00C01810BD034B08
:100FC000034A0448B12101F0E9FCC046205C00104E
:100FD000C0690010385C001010B5091A0B1F0A4ACE
:100FE00088180A4A904208D8C90706D45B105B05E6
:100FF0005B0D0748184380B210BD064B064A0748F0
:10100000A32101F0CBFCC046FC070000FE0F00004E
:1010100000E0FFFF805C0010B4690010385C001035
:1010200010B5091A04394A08090B08D14905490DB8
:10103000064B0B430380064B1343438010BD054B07
:10104000054A0648AB2101F0A9FCC04600F0FFFFAD
:1010500000F8FFFFB05C001088690010385C0010D9
:1010600001238340034A10681840431E9841C0B2D0
:101070007047C04600E100E0002904D0034B18602F
:10108000034B18607047034B1860FBE780E200E0F9
:1010900000E100E080E100E010B50123834018008A
:1010A000FFF7EAFF10BD0000024B9B681030800084
:1010B000C058704700ED00E070B504000D00EFF37C
:1010C000108672B60C4B1B68002BFBD0BFF35F8FF2
:1010D0002000FFF7E9FF094B984201D0A84205D153
:1010E000320029002000FFF74BFF70BD044B054A7A
:1010F0000548862101F052FC240100D0CD010010EA
:10110000C05C0010E8690010385C0010F0B5DE46E5
:1011100057464E464546E0B589B0814601911500D7
:10112000EFF3108A72B66D4B1B68002BFBD0BFF338
:101130005F8F6B4B00269E57002E41DB7400A41975
:10114000A400684824180622A256654B1A70664B04
:101150009A684B4610339B00D35898461F00181AC4
:101160002F2839D9614B984530D105AF604B3B8072
:10117000604973009B46981980005A4B984640443A
:101180000230FFF729FF78805B4BBB80FF23BB71E8
:10119000FD71019B079333005B449B00434407CFE1
:1011A00007C301231C43A046524641464846FFF769
:1011B000E7FE09B0F0BCBB46B246A946A046F0BD6A
:1011C0004E4B4F4A4F48D72101F0E8FB4E4B4C4A5B
:1011D0004C48DE2101F0E2FB01380C2102F028FE30
:1011E000002912D101239F43BB463B000027DA7937
:1011F000AA4211D90621595600290CDB4A0052187F
:10120000920038491F008B18F1E7404B3C4A3D489B
:10121000EA2101F0C3FB1F00002F2ED005AB3C4A92
:101220001A80813A5A800623FB560293002B17DA64
:10123000384805AB9B469880029A9A71DD71019AF5
:101240000792381D2100FFF7C7FEB880BE71254BFD
:101250007200921992009B185A4613CA13C3A3E74F
:10126000381DFFF7A1FE01007000801980001D4BA2
:10127000C0180430FFF7B0FEDBE705AF1C4B3B8026
:101280001C49730002939B199B00164A90461A0052
:1012900042440392901CFFF79FFE7880039A101D32
:1012A0005946FFF799FEB8801B4B5A464146521AE1
:1012B000524153431B0DBB71FD71019A0792029B72
:1012C0009B199B00434407CF07C3114B5A46138019
:1012D000813B538001231C43A04665E7240100D0D5
:1012E000E70D00204002002000ED00E0CD010010DD
:1012F00000A1FFFF7002002001BDFFFFF85C00109D
:10130000D0690010385C0010205D0010485D0010AE
:101310000148000001BD0000AAAA0000F0B5CE46B9
:10132000474680B583B006000D00EFF3108872B613
:101330004F4B1B68002BFBD0BFF35F8F4D4B9A6860
:1013400034001034A300D7584B4B9F4207D0AF4214
:1013500000D18BE00197494BFB1A2F2B09D942464C
:1013600039003000FFF70CFE03B0C0BCB946B046F0
:10137000F0BD3000FFF774FE814600213000FFF71A
:101380008BFEBFF35F8FEFF30581002901D08C4204
:1013900011D10123019C9C430020A368AB4212D0D1
:1013A0000622A256002A0DDB53009B189B00334AED
:1013B0002000D418F1E7324B324A36213248FF314F
:1013C00001F0ECFA2000AB4249D106256557002D0B
:1013D0002BDB2A4B6A00521992009B189A68A26074
:1013E000DA79E2719B795BB2A371002B0FDA27489F
:1013F000A080224B6A00521992009B18244A11784F
:101400009971157049463000FFF746FEA7E768005E
:1014100040198000194BC0180430FFF7C5FD0100CA
:10142000231D1800FFF7D8FDE2E7002912D100289C
:101430000ED0FF238371174B838015490B78A3715E
:101440000E4A154BA41A644163431B0D0B70D9E778
:10145000094FF2E71149201DFFF7E2FDD2E7104BDB
:10146000084A6A210848FF3101F098FA024F76E7EE
:10147000240100D000ED00E0CD010010400200206A
:10148000BC5D0010A0690010385C001001BD0000B8
:10149000E70D002001BDFFFFAAAA00007A0200208C
:1014A000F05D001070B5012202432E4BD31A2F2B92
:1014B00028D8EFF30583002B2BD0EFF3108C72B6F6
:1014C000294909680029FBD0BFF35F8F254C2749C4
:1014D00005002D1B6D416943090D4CB224498968F3
:1014E0009B00C95891421BD00021032932D81D4BC3
:1014F0004A00521892009B189B795BB2A3421FD0FE
:101500000131F2E71B4B1C4AC7211C48490001F07E
:1015100045FA1B4B184A92211848FF3101F03EFA58
:10152000134A92681749D150174B1A7882711C7070
:10153000BFF35F8F0C4B00221A608CF3108870BDD4
:10154000084B4A005518AD005D19FF26AE710F4AD1
:10155000AA80E9E70E4B084AD1210848490001F06A
:101560001DFAC04640020020240100D0AAAA0000B3
:1015700000ED00E0F85D00106C690010385C0010B0
:10158000205E0010CD010010E70D002001BDFFFF1F
:101590002C5E00100022044B02E0044902C3013219
:1015A000072AFAD97047C04600E400E080808080B6
:1015B000024B9C4661448900016070474000003442
:1015C00010B50400FFF7CEFC01002000FFF7F0FF8C
:1015D000FF232371BFF35F8F10BD10B50400FFF729
:1015E000C1FC01002000FFF7E3FFFF23237100236C
:1015F0006371BFF35F8F10BD084B5B6A994209D8D6
:10160000064A926A824207D2994201D0012002E042
:10161000002000E0002070470120FCE7004005406A
:1016200010B500290AD003681B7B8B4206D3806863
:10163000054B9C4661440901401810BD034B044A08
:1016400004483C2101F0AAF9FFFFFF0FCC5E001017
:10165000146B0010F05E0010F8B504001700FFF7DF
:10166000DFFF0668456839002000FFF7D9FF0268F0
:1016700043680120AB4201D802D00020C0B2F8BDBF
:10168000B242FBD8F9E7000010B5002B02DB026084
:10169000436010BD024B034A03483F2101F07EF92D
:1016A000345F0010E06A0010505F001010B582B087
:1016B00004000498059912184B41002B09DB684679
:1016C000FFF7E2FF009A019B22606360200002B0F6
:1016D00010BD01225242014BF1E7C046FFFFFF7FE0
:1016E00010B5002908D0037B8B4205D300684B005E
:1016F0005B18033BC01810BD024B034A0348682126
:1017000001F04CF9A05F0010BC6A0010BC5F001033
:1017100010B5437B8B4201D1012010BDFFF7E0FFE4
:101720008378002B01D10020F7E70120F5E770B5A1
:101730000400857B002D01D1280070BD2900FFF732
:10174000CFFF4378A373002B00D1E3730023837092
:1017500043700370F0E70000F8B506000C001500B8
:10176000FFF7BEFF0700002C0DD0002D11D0AC42BA
:1017700015D029003000FFF7B3FF84703B78002BB1
:1017800013D13D70F8BD0A4B0A4A0B486F2101F096
:1017900005F90A4B074A0848702101F0FFF8084B89
:1017A000044A0548712101F0F9F843703D70E9E7FA
:1017B00010600010986A0010BC5F00101C600010E0
:1017C0002860001070B506000D001400002914D028
:1017D000002A14D0436880689847002806D0220069
:1017E00029003000FFF7B8FF280007E02A00210099
:1017F0003000FFF7B1FF200000E0100070BD0800CE
:10180000FCE7000070B504000D1E0CD0FFF768FF68
:101810000023837043700370617B2A002000FFF770
:10182000D1FF607370BD034B034A0448A52101F04A
:10183000B5F8C04688600010AC6A0010BC5F0010AC
:1018400070B504000D1E0FD0FFF762FF00280BD10A
:10185000E17B00290ED1A37B002B03D1E37B002B7E
:101860000DD1A573E57370BD084B094A0948F621EF
:1018700001F094F82000FFF733FF4570EBE7064BCB
:10188000034A0448FB2101F089F8C046406000107B
:10189000886A0010BC5F00106460001010B5002959
:1018A00007D003681B7B8B4203D3C0680139401803
:1018B00010BD034B034A0448412101F06FF8C046B4
:1018C000CC5E0010746A0010F05E001010B50C00C1
:1018D000CB68834207D10B6908009847002809D0DC
:1018E0002068616810BD064B064A52210648FF3148
:1018F00001F054F80023E36000200021F2E7C04625
:1019000078600010286A0010F05E001070B50500C5
:101910000C00080000F0D4FC0949200000F014FC81
:10192000FFF720FB074B9C466044800068602C75E5
:10193000D0231B061B786B75034BA400E55070BDCC
:10194000591A001040000034B00B00200A4B1A68EE
:10195000EFF3108172B61368002BFCD0BFF35F8FDA
:10196000054B1B68BFF35F8F00221A6081F310885C
:1019700040BF002000217047CC0D002010B582B080
:10198000040000F0C1FB02000B006846FFF77CFE7C
:10199000009A019B22606360200002B010BD70B508
:1019A00084B0040016001D0002A8FFF7E7FF029AAA
:1019B000039B009601952000FFF778FE200004B0FD
:1019C00070BD0000F0B583B0070001921D000AABA6
:1019D0001C780BAB1E78002C0BD000682100FFF7A1
:1019E00097FE002809D0194B194A1A48672100F0C0
:1019F000D5FF0068FFF79BFE0400002C02D12000F9
:101A000003B0F0BD21003800FFF70AFE019B036020
:101A10004560089B8360099BC36038682100FFF71D
:101A2000F1FEA042EBD1387D019A2B0000F0D4FBEF
:101A3000051E01D0002E04D00C9B002BDFD01D70A2
:101A4000DDE73868210000F081FDF5E78C600010CB
:101A5000C86A0010F05E0010F0B5DE4657464E46EC
:101A60004546E0B58FB00B900021794B8200D458E9
:101A7000894683E029002000FFF7D2FD80460268F6
:101A80004368921BBB41002B09DD43461A685B6823
:101A90000B9800F0A1FB0023984600268AE0002B5B
:101AA00001D1002AF1D10021584600F045FD070080
:101AB000A84215D143461A685B68089209934346C9
:101AC0009E68DB689846002E10D029002000FFF7A2
:101AD000E5FE037899461B021F432761002069E059
:101AE0005C4B5D4A5D488E2100F058FF5C4B5A4AC2
:101AF0005A48922100F052FF2369002B00D177E071
:101B0000BB4219D106980799002342428B410092AB
:101B10000193089A099B0CA8FFF7C8FD0C9A0D9B2E
:101B200000210491013103910295414601910096F3
:101B30002000FFF747FF16E04A4B474A4748A121DC
:101B400000F02CFF069A079B002B01D1002A52D1EE
:101B500020682900FFF774FE29002000FFF79EFE91
:101B6000037801330370002323616268BFF35F8F42
:101B700013608AF310880120002861D00CA8FFF7B9
:101B8000FDFE0C9E0D9F00220023089209936268BF
:101B9000EFF3108A72B61368002BFCD0BFF35F8F8F
:101BA00023689B465D7B002D00D063E700239846A9
:101BB000002600206368BFF35F8F00221A608AF35B
:101BC0001088002ED8D04B461F022F4341463800C4
:101BD000B047069007916268EFF3108A72B61368F7
:101BE000002BFCD0BFF35F8F079B002B00DA83E74D
:101BF000079B002BA6DD2369002BA9D0BB4219D17E
:101C00000CA8FFF7BBFE0C9A0D9B06980799009055
:101C100001910CA8FFF74AFD0C9A0D9B002104913D
:101C20000131039102954146019100962000FFF792
:101C3000C9FE98E70B4B084A0848A42100F0AEFE05
:101C40000FB0F0BCBB46B246A946A046F0BDC046A8
:101C5000B00B0020B4600010F86A0010F05E0010B5
:101C6000CC600010D860001010B50C4B5B68002BE6
:101C700004D00B480A21FFF79BFC10BD074C094A12
:101C800020682300102100F0C2FB032000F030FA8E
:101C900003212000FFF73AFEEBE7C0468802002050
:101CA000CC0D00205916001010B5064B5B68002BB8
:101CB00001D0044810BD044B044A05485E2100F0E1
:101CC0006DFEC04688020020146100105C6A00109E
:101CD000F05E0010F0B5DE4657464E464546E0B58C
:101CE0008DB0060090461F00169B9A46179B99469A
:101CF00018AB1B780793272302AA9446634400225B
:101D00001A7021E001003000FFF7C8FD00783CE0C8
:101D10000698002B5CD0079B002B59D04946D04732
:101D200004000D0003000B4359D0002940DB08A834
:101D3000FFF724FE089A099B0094019508A8FFF775
:101D4000B5FC089B9846099F7268EFF3108B72B63A
:101D5000136859424B41D9B20691002BF8D1BFF319
:101D60005F8F273302AA94466344049300230393AE
:101D700002934B4601935346009342463B0030008A
:101D8000FFF720FE0400051EBCD17368BFF35F8F10
:101D9000002119608BF31088002D17D0272302AA89
:101DA000944663441B78002BB2D100022043B0E775
:101DB00000236242AB410092019342463B0008A8D7
:101DC000FFF774FC089B9846099FBDE7012040423D
:101DD0000DB0F0BCBB46B246A946A046F0BD069881
:101DE000F6E7F0B5C64600B584B005008846160093
:101DF0001F000AAB1C78FFF757FF0294019700966B
:101E00002A004346FFF766FF04B080BCB846F0BD29
:101E1000F0B5C64600B505000C1E42D04268EFF38F
:101E2000108772B61368002BFCD0BFF35F8FE6B249
:101E30002B68984631001800FFF76AFC00282AD06A
:101E40002B69A34213D0240AE4B231002800FFF723
:101E500025FD0378A34211D000206B68BFF35F8F8C
:101E600000221A6087F3108880BCB846F0BD0E4B84
:101E70000E4A2C210E48FF3100F090FD3100404603
:101E800000F064FB0028E8D10A4B084A9921084871
:101E9000490000F083FD2B69A342DED100232B61B2
:101EA000DBE70020E0E7C04638610010446A00101C
:101EB000F05E00105C61001010B50400FFF7F4FE46
:101EC0002100FFF7A5FF10BDF0B587B00500100099
:101ED00019000E9C13000B4301D101200021A560C5
:101EE0000C9B2361206061600D9B6361CE173700FE
:101EF0007040020071400B00921BBB4104A8FFF729
:101F00004EFD049A059B0121029101940449009120
:101F10002800FFF7DFFEE060C043C00F07B0F0BD50
:101F2000CD18001010B50400C168002901D10020AF
:101F300010BD8068FFF76CFF0023E360F8E7000046
:101F400030B587B004000D00EFF30583002B20D1DE
:101F500006225242D31712196B418B4202D803D189
:101F6000824201D90022002304A8FFF78DFB02A8BA
:101F7000FFF704FD02980399049A059B121A8B41FE
:101F8000002B0BDC08D02000290000F0C9F807B0B6
:101F900030BD144800F0E2FD002AF4D0124A049843
:101FA000059900230093FFF71CFF002813DAEAE7E6
:101FB0000E4B1A68EFF3108172B61368002BFCD039
:101FC000BFF35F8F094B1B68BFF35F8F00221A605E
:101FD00081F3108820BF04980599FFF70DFB0028B6
:101FE000E6D0D0E7606100104D190010CC0D002044
:101FF00000B583B002000B006846FFF7D0FC0098E4
:102000000199FFF79DFF03B000BD10B5FA229200C1
:102010000023002102F0A4FAFFF7EAFF10BD000040
:1020200030B583B005000C00EFF30583002B0FD112
:102030000B4A00230093FFF7D4FE00280BDD20BFDE
:10204000FFF73AFF28002100FFF7D6FA03B030BDB2
:10205000FFF7D2FAFAE728002100FFF7CDFAF5E7FB
:102060004D19001070B5EFF305801038EFF3108CA8
:1020700072B6194B1B68002BFBD0BFF35F8F012298
:102080001300834015494B6315490B6015490978C6
:102090000C00C440224213D0104A546A124A8500F0
:1020A000AA58944205D3114AAA580E4C994321705C
:1020B00007E00A4A031D9B0099589950002200E04E
:1020C0000022BFF35F8F044B002119608CF310884E
:1020D000002A00D0904770BD280100D00040054084
:1020E0003C700540E80D0020D40D0020B80A002007
:1020F00010B50100024A034B1800FEF7E1FE10BDC7
:10210000B0610010E50D0020044B5B6A034A906A41
:102110001900536A9942F9D17047C0460040054002
:10212000084B5B6A01E0074B5B6A8B42FBD301E023
:10213000044B5B6A8B4203D1024B9B6A8342F7D309
:102140007047C0460040054070B504000E00EFF334
:10215000108572B61B4B1B68002BFBD0BFF35F8F43
:10216000002E1CD02000FEF79FFF174B83420BD0A0
:1021700019002000FEF7A0FF01212000FEF78CFFD0
:102180000123A340114A1360114BA400E650BFF392
:102190005F8F0C4B00221A6085F3108870BD0C4BCA
:1021A000A2000021D1500122A2400A490B7893439A
:1021B0000B7005492000FFF7B1F800212000FEF761
:1021C0006BFFE4E7280100D065200010386005406F
:1021D000B80A0020E80D0020F0B5DE4600B584B056
:1021E0000400150001921E000293FFF78DFF039576
:1021F0008E4202D84ED185424CD9EFF3108B72B685
:10220000274B1B68002BFBD0BFF35F8F254A177845
:102210000125A540EBB23B431370234B5D63221DA8
:1022200092000199D150214AA100029888501B6A5E
:102230002B4212D11C4B1B6C2B4208D00020BFF349
:102240005F8F174B00221A608BF3108823E0184B26
:10225000184A1948C52100F0A1FBFFF755FF8E422F
:1022600014D802D1039B834210D80E4B1B78BB427B
:102270000ED00D4B1D625D631F222240012393404F
:102280000E4A1360074B1F700120D8E70020D6E7E5
:102290000120D4E7012004B080BCBB46F0BDC0469D
:1022A000280100D0E80D002000400540D40D00209A
:1022B000D4610010206B0010F861001080E200E093
:1022C000EFF3108C72B60B4B1B68002BFBD0BFF3E7
:1022D0005F8F01238340084A136208490A789A43B2
:1022E0000A70BFF35F8F034B00221A608CF31088D3
:1022F0007047C046280100D000400540E80D00208E
:1023000010B5002908D0037B8B4205D300684B0031
:102310005B18033BC01810BD024B034A03486821F9
:1023200000F03CFBA05F00107C6B0010BC5F001055
:10233000F8B506000C001500FFF7E2FF0700002CBF
:102340000DD0002D11D0AC4215D029003000FFF780
:10235000D7FF84703B78002B13D13D70F8BD0A4B3A
:102360000A4A0B486F2100F019FB0A4B074A08483C
:10237000702100F013FB084B044A0548712100F05E
:102380000DFB43703D70E9E710600010686B0010B2
:10239000BC5F00101C6000102860001070B50600C3
:1023A0000D001400002914D0002A14D0436880685E
:1023B0009847002806D0220029003000FFF7B8FF18
:1023C000280007E02A0021003000FFF7B1FF2000BD
:1023D00000E0100070BD0800FCE770B505000023A8
:1023E000437301338373037BC373012406E021002D
:1023F0002800FFF785FF0134E4B24470297BA14235
:10240000F5D82800FFF77CFF0023437070BD10B59E
:10241000017342608360FFF7E0FF10BDF0B5C64670
:1024200000B505000C1E03D1200080BCB846F0BDED
:10243000FFF766FF4678002EF6D031002800FFF740
:102440005FFF477800239846437021002800FFF77C
:1024500057FF43464370320021002800FFF79EFFDC
:10246000040039002800FFF7D9FF020021002800EE
:10247000FFF794FF0400D7E7F0B5C64600B50400A7
:102480000D001700002927D0FFF73AFF4378002BF3
:1024900028D18378002B2BD101782000FFF7BEFFD5
:1024A00006008046002F0AD0E17B002926D1A37BBD
:1024B000002B03D1E37B002B25D1A573E5734346A5
:1024C000002B26D129002000FFF71AFF00234370BC
:1024D000300080BCB846F0BD114B124A124838217A
:1024E00000F05CFA114B0F4A0F483A2100F056FAFF
:1024F0000F4B0C4A0C483B2100F050FA2000FFF72C
:10250000FFFE4570D3E70B4B064A0748422100F017
:1025100045FA31002000FFF7F3FE00238370D1E776
:1025200044620010546B00104C6200109062001066
:10253000B86200106460001070B504000A00457BAA
:102540002900FFF799FF6073280070BD70B5060081
:102550000C1E40D0437B8B4207D0FFF7D1FE050015
:102560008178002906D1002036E00121FFF7E4FF41
:10257000012031E03000FFF7C3FE0178A1420DD009
:102580003000FFF7BDFE4178A1420AD00029F7D103
:10259000124B134A13486B3100F000FA6B7803704A
:1025A00001E06B7843700023AB706B700122210057
:1025B0003000FFF761FF0200717B814205D03000DF
:1025C000FFF7ECFE7073012006E0074B044A054854
:1025D000712100F0E3F9002070BDC0462C5E0010B0
:1025E0003C6B00104C620010DC620010F8B5DE4657
:1025F00057464E464546E0B506000F0015000A9ABC
:10260000934250D31A0E92461B0298460A9A002310
:102610004046514601F04AFC81467400A419A400CA
:102620002F4B9C4664446368834200D26060331F32
:10263000DBB29B46012B3CD9C0239B012343802264
:1026400012011A60274BB200D158002907D05869EF
:1026500001F0EEFB013043001B18033BFDD26D017E
:1026600023685D40E0222A4080235B0123431A60F7
:102670005A46012A28D980239B0123438022120134
:102680001A604B4663604A4600234046514601F0BB
:102690000DFC144BB60098510120F0BCBB46B2466D
:1026A000A946A046F8BD104B104A1148332100F04E
:1026B00075F9012FC0D1C0239B01234303221A6067
:1026C000A368DB07FCD5CAE72168794003220A40EA
:1026D0001A60A3680125BD401D42FAD0CBE7C04671
:1026E00000800040D00A0020FC620010886B0010BF
:1026F0001063001030B583B00C2000F011F9FEF724
:10270000BFFB00280DD0002304E02E4A99002E487C
:1027100088500133092BF8D92A4B2C4A5A6203B04E
:1027200030BD2B4B00229A6700F002F9294B0122A1
:102730001A60274B5B6C012BFBD1274B03221A60DD
:10274000234B9B6B012BFBD1013300930433234AB2
:102750000121234800F054F805230093214A012168
:10276000214800F04DF8214B009300220221042063
:10277000FFF73CFF1E4D00952B0000220121052094
:10278000FFF734FF104C00942300002200210720A3
:10279000FFF72CFF00942300002200210820FFF700
:1027A00025FF0A4B00932300002200210920FFF798
:1027B0001DFF00952B00002200210620FFF716FFC9
:1027C000ADE7C046D00A0020006CDC021BB7000059
:1027D000008000403CB0004030B00040002F6859FD
:1027E00000800240008C864700C00240001BB700FA
:1027F00040597307014B8000C0587047D00A002031
:10280000F0B5C64600B504000E0017001D0037489D
:1028100001F00EFB8046364BFA18364B9A4239D8F7
:102820000100380001F004FB0200103A98235B001D
:102830009A4235D86B1E062B38D8069B013B062BD7
:1028400034D83F09474537D32D04069B1B031D434E
:102850002368002B36DB284B9C4244D080235B014D
:10286000264A1360264A1360264A9268190091434B
:10287000FAD12660A060221DC0239B0113432122B0
:102880001A602268002AFCDAE56008221A6080BC1F
:10289000B846F0BD1C4B1D4A1D48112100F07EF8C2
:1028A0001C4B1A4A1A48192100F078F81A4B174A9B
:1028B00017481C2100F072F8184B144A14482321C1
:1028C00000F06CF822683F231340B342C3D1A368E1
:1028D0001B051B0D8342BED1E368EE22D2021340DA
:1028E000AB42B8D1D3E780239B01B9E7001BB70007
:1028F00080E84BD380F8A93200C0024000E00040DD
:1029000000F0004000C0004060630010986B0010B1
:10291000C06300100864001024640010706400108C
:1029200080239B000343014AD36270470080054027
:10293000064BAA2212011A602F22DA60044B054AC4
:102940001A60024B5B68002BFBDA704700400240C4
:102950000060024000B0FA0000BEFDE703000A4A32
:102960001268002A08D0084A1068C318074A9A4219
:1029700006D3054A13607047034A05491160F2E720
:1029800001204042F7E7C046440B0020000004202D
:10299000EC0D002010B5FFF7DFFF000030B583B06D
:1029A0000D001900002A0BD0074B084C0192009330
:1029B0002B000200200002F02FF80120FFF7CCFFCF
:1029C000034B1A00F1E7C0468C6400109C640010B1
:1029D000E85A001070B52B4B2B4A1A602B4B2C4A2F
:1029E0001A602C4B9A682A4B9343FAD12A4C01E087
:1029F00008CC9847294B9C42FAD3FFF77BFE234B28
:102A0000274A1A60234B9B68DB43DB01FAD1254B35
:102A100040229A675A671A67DA66234C09E0234B0B
:102A2000234A24488721FFF7B9FF2000FEF7C8FD9D
:102A30000834214B9C4209D22368002BF5D0012B8E
:102A4000EDD12000FEF7C9FD0834F2E71B4DA9685F
:102A50001B4CC022200001F065FEAC60EFF3058343
:102A6000002B00D000BEFEF76DFAFEF793FDFFF7D6
:102A7000FBF8144C01E008CC9847134B9C42FAD366
:102A800070BDC04600E00040BFCDFBFE00F000403E
:102A9000FE7F3C0000C000402008002030080020DD
:102AA000FFFFFF0100F0014018080020CC64001077
:102AB000BC6B0010EC6400102008002000ED00E06A
:102AC00000000020300800203408002010B5002B42
:102AD00002DB0260436010BD024B034A03483F2102
:102AE000FFF75CFF345F0010A46B0010505F001014
:102AF00010B582B00400FFF707FB02000B00684628
:102B0000FFF7E4FF009A019B22606360200002B09F
:102B100010BD0000D0B582B0041E18D06846FFF783
:102B2000E7FF009E019F0B4B1A685B68B61A9F4136
:102B3000094A00233000390001F0A0F920606160EB
:102B4000054A00233000390001F098F9A260002006
:102B500002B0D0BD3809002040420F000FB400B5CC
:102B600083B0084801F028FF049B002B07D005A97B
:102B70000191180001F030FF034801F01DFF012012
:102B8000FFF7EAFE38650010305B00109A4200D271
:102B900088547047704710B5002802D00B68496808
:102BA000984710BD0100002007E083001B185B0060
:102BB000501C08601078C01830380A681378303B11
:102BC000DBB2092BF1D97047F0B5DE4657464E46C9
:102BD0004546E0B583B093461F000C9B9A460D9C7A
:102BE0000E9B99460F9B9B0703D0B8460F0006002B
:102BF00022E00192A34688464E46B9460700B442F9
:102C000007D2551C4B4641462020B84701342A00C4
:102C1000F5E73D004F465C46019B9B46B146464664
:102C2000B84637002E0007E0013C551C5346185D9E
:102C300043463900B0472A00002CF5D135003E004C
:102C400047460F9B9B0707D4100003B0F0BCBB4660
:102C5000B246A946A046F0BDB0464E46B9462F0042
:102C60005D46531BB342EFD2541C4B4641462020D5
:102C7000B8472200F5E7F0B5CE46474680B585B0A7
:102C8000944698460C9D0D9C0EAB1B789946109A65
:102C9000119B129EB7071CD4002B0CD0F7070AD546
:102CA0004F46002F02D10C37374204D0013B02E0DF
:102CB00030272F550134944201D21F2CF8D9F70741
:102CC00007D59C4205D21F2C03D830272F5501343D
:102CD000F5E7F70612D5770505D4002C03D094420A
:102CE00021D09C421FD00F9A102A32D00F9A022A6C
:102CF00037D01F2C0AD830222A5501341F2C05D872
:102D00004A46002A33D02D222A55013403960293D5
:102D10000194009543466246FFF756FF05B0C0BCDC
:102D2000B946B046F0BD621E012C10D00F9F102F87
:102D30000BD014000F9A102AD8D1B206D6D51F2C6A
:102D4000D4D858222A550134D3E7023CCBE71400EB
:102D5000C9E7B206EED41F2CECD878222A550134EC
:102D6000C7E71F2CD2D860322A550134C1E7720759
:102D700003D52B222A550134C8E73207C6D52022B5
:102D80002A550134C2E7F0B5DE4657464E46454661
:102D9000E0B593B081468A46089209931CAB10CBEC
:102DA0001B789B461E9D219B9846002C03D1102327
:102DB00042469A4390468023DB0046461E404246E8
:102DC0001A4212D0002C22D000260EE03033D9B2A5
:102DD000771C0AAB99552900200001F029F8AC4274
:102DE00016D31F2F14D83E0004002900200001F044
:102DF0001FF8CBB2092BE9D94246920605D54121ED
:102E0000C918C9B20A39C9B2E2E76121F8E7270057
:102E100043460693209B05931F9B049303955B46B3
:102E2000029301970AAB0093099B089A51464846C2
:102E3000FFF721FF13B0F0BCBB46B246A946A0463F
:102E4000F0BDF0B5DE4657464E464546E0B597B074
:102E50000A900B910C929A46209B9946219F22AA98
:102E600013789B46249B0993259C289B98464A46A9
:102E70003A4302D11032934398468022D20045460D
:102E80001540434613420AD04A463A4341D00025F2
:102E90002E0053460D934D46099B9A461BE02E008B
:102EA00053460D934D46099B9A4614E03033DAB2EF
:102EB000731C99460EAB9A555246230028003900E0
:102EC00000F0F4FFBC4226D819D04B461F2B1CD86B
:102ED0004E4605000F00524623002800390000F03E
:102EE000E5FFD3B2092BE1D94246920605D541222E
:102EF000D218D2B20A3AD2B2DAE76122F8E7AA458A
:102F0000E3D94E460D9B9A4608E04E460D9B9A46E5
:102F100004E0002602E04E460D9B9A464346069387
:102F2000279B0593269B0493099B03935B4602937F
:102F300001960EAB009353460C9A0B990A98FFF733
:102F40009AFE17B0F0BCBB46B246A946A046F0BDFB
:102F5000F0B5DE4657464E464546E0B591B0804650
:102F600089460C929A461A9C1B9D22002B00200039
:102F7000290001F016FA002800D0ECE001225242AC
:102F8000D44B2000290001F007FA002800D0E2E02D
:102F900001225242D04B2000290001F0E7F900281D
:102FA00000D0D8E0002200232000290001F0DEF943
:102FB000002800D0E4E0069407958023DB001E9AE9
:102FC0001A400D921E9A1A4201D106231C930698AC
:102FD000079902000B000892099303000A000243BC
:102FE00000D1D9E0080D4005400DBC4EB446604408
:102FF0000A03120B1E00BA4B13431F0001F0E4F941
:10300000B84AB94B01F073F9B84AB94B01F050F91D
:10301000089009910022B74B3000390001F043F9C4
:10302000B54AB64B01F063F902000B000898099904
:1030300001F03EF901F0E0F9834601F0C5F9060020
:103040000F00AF4AAF4B01F052F90022AE4B01F036
:103050002FF901F0D1F90890AC4AAD4B300039009E
:1030600001F045F906000F00089801F0ADF9A94AF2
:10307000A94B01F03CF902000B003000390001F0CF
:1030800012F906000F0002000B0001F030F90A905F
:103090000B91089BA14A94466344002100220891A9
:1030A00009921B0509930023089332003B0030006E
:1030B000390001F0FDF80E900F9132003B00002026
:1030C0008021C90501F0EFF806000F000022944BA3
:1030D0000A980B9901F0F1F80022924B01F0E8F800
:1030E00002000B000A980B9901F0E7F800228E4BC2
:1030F00001F0DEF802000B000A980B9901F0DDF8F0
:1031000002000B003000390001F0D2F802000B0081
:103110000E980F9901F0D1F80022714B01F0C8F818
:10312000089A099B01F0E3F806000F00089609973A
:10313000069A079B01F030F900282FD001235B424B
:103140009C46E3440022774B3000390001F0B5F88B
:103150000890099122E01E9B04931D9B03931C9BE6
:1031600002930094019553460C9A4946404600F05C
:10317000FFF811B0F0BCBB46B246A946A046F0BD70
:103180000021002206910792069480231B069C468C
:10319000AC446346079310E700239B465B466333CA
:1031A000C62B20D804261E9B1B0528D5089A099BF0
:1031B000190011430FD05D4A5D4B0698079901F045
:1031C000E3F800287AD000225A4B0698079901F0BC
:1031D000CDF8002872D01C9B5B4506DD5A469B1A31
:1031E000013B1C9303E00526DDE700231C938023AD
:1031F000DB001E9A1A431E92002600239B461D9B4D
:103200009E4265D29F1B02231E9A1A400A921E9A62
:10321000134202D0002E00D000275B46002B07D0BF
:10322000089A099B0698079901F047F806900791BC
:10323000002200232000290001F098F8002800D087
:103240007CE03D4B1E9A1340049303971C9B029312
:10325000069B079C0093019453460C9A49464046AE
:1032600000F086F8002E00D183E71E9B9B0671D5E7
:103270004525441C5346020049462800C0475A468B
:10328000D317D2185A4005230593013E0496002314
:1032900003930A3302935B46DB0F0193009253467C
:1032A000220049464046FFF76EFD0A9B002B00D1E5
:1032B0005FE7020047460C9E1D9D53E01C9B002BC0
:1032C0009DD00D9B002B9AD01C9B013B1C9396E735
:1032D000002798E7FFFFEF7FFFFFEFFF01FCFFFFF5
:1032E0000000F03FFB799F501344D33FB3C8608B7D
:1032F000288AC63F0000F83F61436F63A787D23F2B
:1033000071A379094F930A400000E03F1655B5BB01
:10331000B16B0240EF39FAFE422EE63FFF03000098
:1033200000002C4000002440000018402D431CEBFE
:10333000E2361A3F80842E41FFF7FFFF069C079D6F
:103340002200290080200006844661440B0006927A
:10335000079376E765258CE7541C534649462020A1
:10336000B8472200931BAB42F6D3100001E7C046DA
:10337000F0B5DE4657464E464546E0B595B0069058
:10338000079193469946209F1E9A1F9B1000190093
:1033900001F007F8002831D101225242BF4B1E989C
:1033A0001F9900F0E3FF002837D101225242BC4BA5
:1033B0001E981F9900F0F0FF00283DD10022B94B64
:1033C0001E981F9900F0E8FF002850D10022B64B4C
:1033D0001E981F9900F0CAFF002848D10022002340
:1033E0001E981F9900F0C2FF002850D10023984674
:1033F000229B5B0500D4B6E0002458E0229B039397
:10340000219B029303230193A84B00934B465A46FA
:1034100007990698FFF7D8FB0EE1229B0393219BA7
:10342000029304230193A24B00934B465A460799FB
:103430000698FFF7C9FBFFE00423229A1A4022995D
:103440000B4210D09B4B002A0FD0042222990391EB
:1034500021990291019200934B465A46079906988A
:10346000FFF7B2FBE8E0944BEDE70322EEE7229B87
:103470000493219B039302971E9B1F9C009301942E
:103480004B465A4607990698FFF762FDD4E01E9A0C
:103490001F9B0020002100F006FF1E901F910123BA
:1034A0009846A5E70CAB30221A55013F01341F2C7A
:1034B00001D8092FF6D81E981F9900F09DFF05002E
:1034C00000F082FF02000B001E981F9900F0EBFE37
:1034D0007A4BFA009B181A685B680A920B9300F00B
:1034E00006FF0890099100F0ABFF060000F068FFAE
:1034F00002000B000898099900F0D5FE0890099188
:1035000000226F4B00F048FF00282ED0013630001B
:1035100000F056FF02000B000A980B9900F02CFFF8
:10352000002801D001350026002F2CD1280000F002
:103530004BFF02000B001E981F9900F0B4FE06001E
:103540000F0000225E4B00F011FF002846D1002240
:103550005B4B3000390000F01FFF00283ED1EB0725
:103560003CD501353AE0062746E70022544B08983F
:10357000099900F0FBFE0028D6D1002E01D0F307F8
:10358000D2D50136D0E7AA461F2C11D8013F0A2117
:10359000300000F04DFC651C30310CAB19550A2190
:1035A000300000F045FC092E0ED906002C00EBE798
:1035B00055461F2C0CD87B1E002F09D00CAA302199
:1035C00011551F000134F4E72B0055461C00F0E7AD
:1035D0001F2C03D80CAB2E221A5501341F2C10D8E7
:1035E0000A21280000F0FCFB661C30310CAB195599
:1035F0000A21280000F0F4FB051E01D03400EDE79D
:1036000034000323229A1340012B1CD01F2C06D810
:103610004346002B32D00CAB2D221A550134229B8D
:103620000393219B029301940CAB00934B465A46A3
:1036300007990698FFF7C8FA15B0F0BCBB46B2462A
:10364000A946A046F0BD219B002B13D04346002B7A
:1036500002D10C3313420FD0219B013B219319005F
:1036600003E00CAB30221A5501348C42CED21F2C11
:10367000F7D9CBE72199F8E72199F6E7229B5B0779
:1036800004D50CAB2B221A550134C8E7229B1B072B
:10369000C5D50CAB20221A550134C0E7FFFFEFFF60
:1036A000FFFFEF7F65CDCD4165CDCDC154650010E5
:1036B000586500104865001050650010686D0010D6
:1036C0000000E03FF0B5DE4657464E464546E0B5C1
:1036D00093B08246884693461193002900D10DE3AA
:1036E00000255646119B1878002800D109E32528AB
:1036F00009D06C1C5B462A004146B047119B013340
:1037000011932500EEE701331193002720E00123F8
:103710001F4301321192012418E002231F4301329A
:103720001192012412E004231F430132119201245B
:103730000CE008231F4301321192012406E01023FC
:103740001F4301321192012400E00024002C09D013
:10375000119A1378203BD9B21029F6D88B00C849AA
:10376000CB589F46119B1A781300303BDBB2092BD4
:1037700010D92A2A13D00B94119B1A782E2A1ED006
:10378000119A1378683BD9B2122959D88B00BD49D8
:10379000CB589F4611A8FFF705FA0B90ECE71C9B4E
:1037A0001A1D1C921B68002B04DB0B93119B013329
:1037B0001193E1E7022217435B420B93F6E7802265
:1037C000D20017435A1C11925A781300303BDBB2D7
:1037D000092B0BD92A2AD3D11C9B1A1D1C921C68B9
:1037E000002C08DB119B01331193C9E711A8FFF7E7
:1037F000D9F90400C4E70024F4E780235B003B43CD
:10380000511C119151786C2901D01F0018E0C02380
:103810009B001F430232119212E080233B43511C54
:1038200011915178682901D01F0009E0C0231F437E
:103830000232119204E080235B001F430132119297
:10384000119B1878672818D8252800D24CE203006D
:10385000253BDAB2422A00D946E293008A4AD3587D
:103860009F4680239B001F4301321192E8E780238B
:103870005B001F4301321192E2E7782800D933E25E
:10388000692800D230E20200693AD2B201239340A3
:103890007E4A134211D11A0600D500E25B0500D41E
:1038A00022E21C9B1A1D1C921B689A46002C00D019
:1038B000B2E10122524253468EE16F280ED006D863
:1038C00058283DD0622804D102239C4608E078287D
:1038D00039D010239F43063B9C4601E008239C46B9
:1038E000582833D0692803D0642801D00C2297438C
:1038F0007A0501D50122974369282AD0642828D067
:10390000BA0500D59FE0FA0500D5C1E07A0600D4DB
:10391000D3E01C9A111D1C911168FF220A400597E3
:103920000B9B04930394634602930023019300923C
:103930005B462A0041463000FFF725FA050027E0E4
:1039400010239C46CCE710239C46C9E7202217434E
:10395000C8E7BA0520D4FA0550D47A0666D51C9A71
:10396000111D1C911168FF220A40D0171118414007
:1039700005970B9B0493039463460293D20F019225
:1039800000915B462A0041463000FFF7FCF9050034
:10399000119B01331193A5E61C9A073207218A4334
:1039A000110008311C91116853689946DB170C937C
:1039B0000D930C9A0D9B100048400E904A465340C0
:1039C0000F930E980F990C9A0D9B801A99410E90A7
:1039D0000F9108970B9B079306946346049300236B
:1039E00005934B46DA0F0292009001915B462A0044
:1039F00041463000FFF725FA0500C9E71C9A111D62
:103A00001C911268D0171118414005970B9B049325
:103A1000039463460293D20F019200915B462A0001
:103A200041463000FFF7AFF90500B1E73A0605D58A
:103A30001C9A111D1C910023D25E96E71C9A111D41
:103A40001C91126891E71C9A073207218A431100E2
:103A500008311C9108970B9B0793069463460493C7
:103A600000230593029353681268009201935B460A
:103A70002A0041463000FFF7E4F9050088E7C04618
:103A8000CC6B0010106C00105C6C001041900000BA
:103A90001C9A111D1C9105970B9B0493039463467C
:103AA000029300230193136800935B462A0041466A
:103AB0003000FFF768F905006AE73A0606D51C9A58
:103AC000111D1C9112681204120C28E71C9A111D7A
:103AD0001C91126823E7462819D01C9B0733072244
:103AE00093431A0008321C9204970B9A0392029493
:103AF0001A685B68009201935B462A0041463000D9
:103B0000FFF736FC0500119B01331193EAE52023F2
:103B10001F43E2E7672801D0472802D180231B0119
:103B20001F43452801D0472801D120231F431C9B58
:103B30000733072293431A0008321C9204970B9A0A
:103B4000039202941A685B68009201935B462A0014
:103B500041463000FFF7FCF90500119B013311933A
:103B6000C0E502231A003A4091463B421DD0012491
:103B70001C9B1A1D1C926F1C18785B462A0041463C
:103B8000B0474B46002B14D1119B013311933D00DC
:103B9000A8E5571C5B4641462020B04723003A0069
:103BA0005C1C9D42F5D81500E2E701232A000B9D1D
:103BB000F6E73A00B1460B9E06E0571C5B464146CD
:103BC0002020C8472C003A00651CA642F5D81700F3
:103BD0004E46D9E701330A001978002902D0511E58
:103BE000002AF7D152469B1A8022D2003900114098
:103BF0008946174202D0A34200D9230002221100B5
:103C0000394010913A4209D02A00250057469A4679
:103C100033004E46994621E022004CE62A004546F4
:103C2000A04606E0541C5B4629002020B0473B001C
:103C300022005F1C0B999942F4D84446A8463B00E9
:103C4000250057469A4633004E46994606E01D0029
:103C50000137541C5B464146C8472200387800288B
:103C600004D0002EF4D06B1E002DF0D11500534669
:103C70004E46109A002A03D1119B0133119331E56E
:103C80000B9F2A0006E0551C5B4641462020B047AA
:103C900023002A005C1C9F42F5D81500ECE7212385
:103CA0003B431C9A111D1C91126805930823049331
:103CB0000394083302930023019300925B462A0089
:103CC00041463000FFF75FF80500119B0133119367
:103CD00008E56C1C5B462A0041462520B047119B35
:103CE000013311932500FDE46C1C5B462A0041461C
:103CF000B047119B013311932500F3E40A4B9A4618
:103D0000EEE4B2465D450DD35B465A1E5B46414626
:103D10000020D047280013B0F0BCBB46B246A946ED
:103D2000A046F0BD2A00F1E7952B00100EB430B587
:103D300084B0010007AC08CC03940122054D009427
:103D400052422800FFF7BEFC04B030BC08BC03B0F0
:103D50001847C0468D2B001000B585B00290039126
:103D600001210448009313004A4202A9FFF7AAFC6C
:103D700005B000BD972B001001480421014B1847E6
:103D8000B0020020A93D001010B5010018231B88C7
:103D900014221088984710BD10B5010018231B8805
:103DA00016221088984710BDF0B5C64600B507002A
:103DB0000E0000250123984600E00135B5420AD2E5
:103DC000AC003C192068FFF7DFFF20600028F4D129
:103DD00000239846F1E7404680BCB846F0BD00009D
:103DE000124A936F9B0815D29066D166002905D0C0
:103DF000FFE7FFE7FFE7516F106F704704B58021C1
:103E00000906C2175140002800D0C84301F01CFE2B
:103E1000002104BDF0B5146E556E576F166FFFF795
:103E2000E3FF1466556657671667F0BD000000D0C3
:103E3000114A936F9B0813D210665166002905D072
:103E4000FFE7FFE7FFE7516F106F704704B50028E9
:103E500001D00020C04301F0F7FD002104BDC046A1
:103E6000F0B5146E556E576F166FFFF7E5FF1466C9
:103E7000556657671667F0BD000000D094464A4A61
:103E8000926F9208624601D228E0C046F0B5464ED5
:103E9000346E756E776F366F00F020F89446424AA4
:103EA00014665566576716676246F0BD94463E4AEB
:103EB000926F9208624601D254E0C046F0B53A4E85
:103EC000346E756E776F366F00F04CF89446364A54
:103ED00014665566576716676246F0BD002B24DBF3
:103EE00011D000293EDA00B5C943404200D101316A
:103EF00000F038F8C943404200D10131DB4352425F
:103F000000D1013300BD002AEBD1002801D10029E6
:103F100005D00020C90FC90701D1C043410800B531
:103F200001F08AFD0022002300BD00B500290ADB54
:103F3000DB43524200D1013300F014F8C943404240
:103F400000D1013100BDC943404200D10131DB4302
:103F5000524200D1013300F005F8DB43524200D158
:103F6000013300BD002923D1002B18D1002A0CD029
:103F7000BC460D4F38667A6600210023FFE7FFE755
:103F8000FFE77A6F386F67467047002801D007480F
:103F9000010000B501F050FD0022002300BD020029
:103FA0000B00002000217047000000D0FFFFFFFF42
:103FB000002B00D0BFE0130C28D1002AE7D080B43A
:103FC000114F39667A66FFE7FFE730B4040C7B6F68
:103FD000396F1B0423433B667A66FFE7FFE7FFE781
:103FE000C04684B27B6F3D6F1B0423433B667A66F9
:103FF000FFE7FFE7C04600232C042D0C7A6F386FD3
:1040000000196941B0BC7047000000D0F0B594467B
:104010000025140E01D112020835140F01D112012E
:104020000435940F01D192000235D40F01D1520012
:104030000135D40B0134254F7C66254C3C660E0CB3
:1040400093B2FFE7FFE7FFE73C6F6643360C770369
:10405000BE467343DF0B5B04C01AB941130C7343B4
:10406000DB18C91ACE086643360CB64493B27343C4
:104070001F0F1B01C01AB941130C73431F0B1B0503
:10408000C01AB941860D8F023E436643360C092D96
:1040900024DB520A7243801A7703460A6643360CC1
:1040A00016235B1BDE40DF40BF1964466643821B5C
:1040B0007046043506330100D940A840C01900D32A
:1040C0000131A24206D20023F0BD0000000000D062
:1040D000FFFFFFFF121B0130F3D3F1E709277F1B1E
:1040E000FE406446A2B27243801A00D20139220C0B
:1040F0007243130C1204821A99410B007046043566
:1041000013370100F940A840801900D30131002B7A
:1041100002D1A2420AD2F0BD013000D30131121BFC
:10412000FAD2013BF8D1A24200D2F0BD013000D357
:104130000131121BF7E7F0B51C0C00D080E00CB485
:1041400000251C0A04D11B02160E33431202083547
:104150001C0B04D11B01160F3343120104359C0BB9
:1041600004D19B00960F334392000235DC0B02D141
:1041700092185B4101351C00971864410134464F89
:104180007C66464C3C660E0CFFE7FFE7FFE7C04647
:104190003C6F6643360C7703BE4697B27743C01B2D
:1041A00000D20139C01B00D201399FB27743C91B2D
:1041B000C91B170C77437E04FF0B801BB941CE0847
:1041C0006643360C0C2D33DBB644120B1F053A4305
:1041D0001B0B97B27743C01B00D201399FB27743C4
:1041E000C91B170C77433E043F0C801BB941860D59
:1041F0008F023E43664329277F1BFE400C3D7746D6
:10420000AF40BF1930BCA2B2ABB272437343801A45
:104210009941220C7243130C1204801A9941020036
:104220000B000137001BA941F9D2781E0021F0BD17
:104230000C277F1BFE4077467F0BAF40FF19E0E75E
:1042400000245D1C07D0144F7D663966FFE7FFE749
:10425000FFE7FFE73C6F95B29EB265436643401BA4
:10426000B141150C1E0C6543664336042F0C3E43CA
:104270002D04401BB141994204D202000B002000E2
:104280000021F0BD01D19042F7D3801A9941013449
:104290009942F2D3F6E70000000000D0FFFFFFFFD5
:1042A00048404140484018B4134B5B68019308BD37
:1042B00018B4114B1B68019308BD94460F4A926FC6
:1042C000920805D2624618B40B4BDB68019308BD17
:1042D0000A4AF0B5146E556E576F166F6246FFF7B7
:1042E000F2FF064A1466556657671667F0BD18B4A4
:1042F000014B9B68019308BDC80B0020000000D053
:10430000FFB550404240504059404B40594000E0BA
:10431000FFB5154F4C00640D03D0BC4204D10C0313
:1043200014D80020090D09055C00640D03D0BC42BF
:1043300004D11C030AD800221B0D1B0501264B408B
:1043400009D44B4003D58B4200D18242FFBD994234
:10435000FCD19042FFBD0B43DB1803431343F5D060
:10436000C9434918FFBD0000FF07000000B5FFF773
:10437000CFFF804100BDC04600B5FFF7C9FF01D99E
:10438000002000BD012000BD00B5FFF7B9FF01D935
:10439000002000BD012000BD00B5FFF7B1FF804146
:1043A00000BD012040054A00121804D85A00121816
:1043B00001D800207047012070470020704700009E
:1043C0000021002805D17047C1174840401AFAD093
:1043D000C90713B5064B1B6898470CBC441CA24088
:1043E0001005120B0349091B09051943114310BDA0
:1043F000C80C00201F04000010B54C00620D802383
:10440000D218DB00D21A5B057E2A10DD9E3A13DA41
:10441000CC170903490819435242D14064000134C2
:104420001532202A05DAD0400843604310BD002031
:1044300010BD0846604310BDC80FC018013810BD3C
:1044400018B4024B5B6A019308BD0000C80B002042
:1044500010B50148FEF782FB6065001070B51323AC
:104460001C78012C12D0012C12DC214B214A9364C0
:104470002148FFF789FC214B186070BD20491D4A77
:104480009800815001331F2BF8D9ECE70023FAE79D
:104490001C48FFF781FC05001B48FFF77DFC023834
:1044A00003789B007F2B09DD12488022290000F051
:1044B00039F9022C08D0022CDADCD6E7134B144A67
:1044C00014483221FEF76AFA134B1A88B5231B02EF
:1044D0009A4209D1114B1A88114B9A4204D1114BBF
:1044E0001A88114B9A42E6D00020FEF737FBC046EF
:1044F0002D450010C80B00204C330000C80C0020D4
:1045000051440010534400005346000078650010E9
:10451000B86D0010CC65001054380000D838000089
:10452000494600009C3800005946000007B5604627
:10453000002800D100BE01880A0A0230DF2AFAD121
:10454000C9B2820804D3028840880004104300E006
:104550000068024A5050039007BD0000C80B0020BD
:1045600051434343C9188C46110C83B24B4310B4DA
:10457000040C614392B280B2504362431C041B0C92
:10458000001910BC59411304120CC0185141614468
:10459000704700004840414048400E4B5B68184758
:1045A0000C4B1B6818470C4A936F9B0802D2094BAF
:1045B000DB681847F0B5146E556E576F166FFFF72E
:1045C000F6FF054A1466556657671667F0BD014B3E
:1045D0009B681847CC0C0020000000D0491A002826
:1045E00008D1084670470000C10FC90700D54042F6
:1045F000002817D0F44603B40B4B1B68984706BC41
:1046000081409E384042803107D20B0607D04900D6
:10461000490AC0051043084360470130F8E7490ADA
:104620008902F5E770470000C80C0020014B5B6A67
:1046300018470000CC0C002010B50148FEF78EFA98
:10464000E85A001070B513231E781848FFF7A4FB32
:104650000500012E11D0012E09DDAB1E1B789B0039
:104660007F2B1DDD12488022290000F05BF81148E5
:10467000FFF78AFB104B186070BD0D4854222900CB
:1046800000F050F8002300E001331F2BE3D8084A64
:104690009C00A258002AF7D10849054AA150F3E727
:1046A000074B084A08484221FEF778F953460000B4
:1046B000CC0C00204C330000C80C00203946001000
:1046C00020660010CC6D00105466001010B5002854
:1046D00004D04018034B984200D810BD0248FEF7A2
:1046E0003DFAC04600000420A466001070B5050025
:1046F00000F0A0FC04002900FFF7E8FF200070BDD7
:1047000010B500F0A1FC10BD01480421014B184771
:10471000C0020020A93D0010014B1B681847000093
:10472000C0020020014B5B6818470000C002002057
:1047300010B50300080011001B68984710BD000069
:10474000F8B507000D001600437D002B02D00024B1
:1047500000200CE003681100280098472DE03B7D05
:1047600010E03B68154802219847601C0134B442B0
:1047700014DA002CF3DD2B19013B1B780D3B5A4258
:104780005341DBB22A5D0A2AF0D1002BEED1A042C0
:10479000E7DA3B68211A28189847E2E7B04203DAC3
:1047A0003B68311A28189847002E06DDAD19013DE7
:1047B0002B780D3B5A4253413B75F8BD106E0010EB
:1047C00070B505000368002B16D00C4B1C6805E083
:1047D000290004C92000FFF7B3FF2469002C09D089
:1047E0002368002BF9D0064B1B68002BF0D0A342A6
:1047F000F3D1EDE700232B6070BDC046380B0020DD
:10480000400B002070B505000C000B68802B05D014
:1048100023685A1C2260E418257170BD0800FFF758
:10482000CFFFF5E710B5002B02DB0260436010BD3F
:10483000024B034A03483F21FEF7B0F8345F0010F3
:10484000146E0010505F001010B582B00400FDF728
:104850005BFC02000B006846FFF7E4FF009A019B37
:1048600022606360200002B010BD000070B582B00D
:10487000060014001D00FA22920000230698002171
:10488000FFF76EFE02000B0012196B41002B09DBD3
:104890006846FFF7C7FF009A019B326073603000E3
:1048A00002B070BD01225242004BF1E7FFFFFF7FD3
:1048B00030B585B004000D0002A8FFF7C5FF029ACD
:1048C000039B00952000FFF7D1FF200005B030BD0D
:1048D00000B583B0FA2189006846FFF7E9FF009A26
:1048E000019B024801F0B8F803B000BD1808002091
:1048F00010B5024801F098F810BDC0461808002015
:10490000F0B5CE46474680B583B006000D00904610
:104910001C00FFF7DDFF81466B1C05D0002C08D082
:10492000194F1A4B1C6807E0300000F007FF050024
:10493000F4E7174FF5E72469002C17D02368002B04
:10494000F9D0144B1B68002B01D0A342F3D12A00ED
:1049500031002000B8474346002BECD06B46D91DF0
:104960000A230B7001222000B847E4E74B46002BD6
:1049700007D16B1E9D41E8B203B0C0BCB946B0463A
:10498000F0BDFFF7B5FFF4E731470010380B00200A
:1049900041470010400B002010B5064B1C6801E099
:1049A00098472469002C03D06368002BF8D1F8E7FE
:1049B00010BDC046380B002070B5050000F0BEFEEB
:1049C00004000023012201002800FFF799FFFFF7F0
:1049D000E3FF200070BD000070B5A2B004000E001F
:1049E000FFF776FF0500002301930A4833002200F9
:1049F00001A9FFF7B1F9040001A8FFF7E1FEFFF7F5
:104A0000CBFF002D02D1200022B070BDFFF770FF58
:104A1000F9E7C046054800100FB400B583B004A9FB
:104A200001C90191FFF7D8FF03B008BC04B01847D3
:104A30000020704710B5040010220021FFF76CFE23
:104A400080235B022360F8235B0263608023DB0228
:104A5000A360C0231B03A360200010BD0523CB5619
:104A6000002B01DB934211D1094B9C466044434229
:104A70005841084B8000C058097901238B40013B05
:104A80009340184043425841C0B270470020FCE7B1
:104A90000000D0AFB00A002070B50A79202A19D8DA
:104AA000174B9C46604443425841164B8000C45803
:104AB00001239340013B497949B2002910DB0800EA
:104AC0002025AA1A914218DC8B401C4201D00120FB
:104AD000404270BD0C4B0D4A0D484021FDF75EFF72
:104AE0002020801A002805DB1A0082401442F0D0F2
:104AF0000138F7E701204042EBE701204042E8E7B8
:104B00000000D0AFB00A0020046700102C6E001027
:104B10003067001070B505000C001600FFF79EFF0F
:104B2000002801D0002108E01648FEF717F89A196E
:104B30008B1912339B005A51013123798B4211D9C1
:104B4000227863781B021343A27812041A43E37895
:104B50001B0613434A009B5A802292019342E6D3DC
:104B60001A00E5E701229A401300013B064A9446E9
:104B700065446A4255410549AD006A58B340134344
:104B80006B5070BD786700100000D0AFB00A0020F5
:104B900010B582B00A4B9C466044434258418400A1
:104BA000E31C0848084A00922200FCF7A2F984425C
:104BB00002DC001B02B010BD01204042FAE7C046F3
:104BC0000000D0AFE60D00208C670010F8B505009E
:104BD0000E00FCF75FF9070031002800FFF75CFFCB
:104BE000041E09DB020031002800FFF793FF3800A4
:104BF000FCF75CF92000F8BD0148FDF7AFFFC046A7
:104C000078670010F0B5C64600B506AC25784C00B4
:104C10006618F60086193700DC373F68BC46CC368C
:104C20003668B0466418E400C83404190434C02659
:104C3000B60134438026B6022660002D01D01F261F
:104C400014E0002612E05401A0256D0525434C0018
:104C50006418E40004192700DC373D60114D35432A
:104C6000D8342560053B05321F242240052BEAD8A5
:104C70009B06520113434C006218D20082181500A3
:104C8000DC352B60074B3343D832136063462B600F
:104C90006418E4000019CC304346036080BCB84679
:104CA000F0BDC04680E0000070B584B004000D0087
:104CB000160002680121A9408A430260002B34D00B
:104CC000186869004919C90061180A00C8321060E3
:104CD000586804321060986804321060DB68DC3178
:104CE0000B606A005319DB00D033E31880214901BF
:104CF0000B438021090619601960164BAB40A36075
:104D00002B1D01210800984080239B01234318603C
:104D100028000830814019601F2333405219D20007
:104D2000A418D834236004B070BD6846FFF782FE33
:104D300000996B005B19DB00E3181A00C8321160A0
:104D4000019904321160029904321160039ADC3334
:104D50001A60C6E701010101F0B5DE4657464E462E
:104D60004546E0B585B00700100098460EAB1B78AD
:104D700003930F9D109E3B680022DA663B685960E2
:104D80003B680132DA660022002399460024C346BC
:104D90004146029190462BE03A79002A31D0012217
:104DA0002FE00399002901D000212EE001212CE001
:104DB0003000A84703000443E4B2002B06D13A6850
:104DC000526BD20602D4002DF2D1F6E7002B09D1A6
:104DD0003A6880215158894600291FD1002C2FD1D3
:104DE000C2451ED0002C33D101229446E0440198E4
:104DF000D8452DDA029A013A92464246002ACBD093
:104E000000229202C245CCD0002149020A43411C33
:104E100001910078396802430A61D4E7526D012498
:104E20000EE0039A002ADDD10AE03000A847030013
:104E30000443E4B2002B06D13A68526B920502D4C7
:104E4000002DF2D1F6E7002BCCD13A68126EC9E7FB
:104E50004246002C09D0002B11D14B46002B12D01A
:104E6000DB0714D44B461B0715D5039B3B71100081
:104E700005B0F0BCBB46B246A946A046F0BD012332
:104E80005B421A00F1E702235B421A00EDE70223BE
:104E90005B421A00E9E702235B421A00E5E70000E3
:104EA000F0B5D6464F464646C0B505000C00052075
:104EB000FDF7A0FC0600600880192100FEF7B8FF8E
:104EC000070043009946814405214846FEF7B0FF9C
:104ED00080463B1A9A46284B9C4224D87000801981
:104EE0002649FEF7A5FF441C4346023BA34221D3BB
:104EF0002B680022DA6629680B68043253400232BC
:104F00001A4080235B010B431A602B685246DA611A
:104F10002B6842461A624B464F2B11D95021484606
:104F2000FEF786FF0DE0700080191549FEF780FF3F
:104F3000441CD9E7134B144A14485D21FDF72EFD9C
:104F400001202A68A023D0502B681A007C32DB6F26
:104F50005C402404240C80235B0113431C602B68F9
:104F60000122DA6639003000FEF762FFE0BCBA4683
:104F7000B146A846F0BDC0463F420F00809698005B
:104F800040787D01B06700104C6E0010D0670010B3
:104F900010B5114B98421DD01022104B1A60104BC7
:104FA0001A60104B9B6814009C43231EF9D10471B6
:104FB0000268D46602686624FF3414600268D36312
:104FC0000268936302688833633CFF3CD450FFF768
:104FD00067FF10BD0822E0E7D802002000E0004093
:104FE00000F0004000C0004030B585B008AC257826
:104FF0000024029401940095FFF7AEFE05B030BD89
:105000000123084A1360084A1360084B9A68012379
:105010009343FAD1064B01221A60054B1B68DB054E
:10502000FBD5704700E0004000F0004000C00040A9
:1050300000C0044010B5034B0100186800F00EF8E2
:1050400010BDC046F006002010B5034B01001868E3
:1050500000F0FCFB10BDC046F0060020F0B54E4647
:105060004546DE465746E0B50D000B35060085B0D7
:10507000162D27D8102900D9DAE000F0D1FA102532
:1050800018230221C74FFB181A005C68083A9442A3
:1050900000D146E103226368A1689343E268CA60D5
:1050A00091600121E3185A6830000A435A6000F009
:1050B000BFFA2000083005B0F0BCBB46B246A94696
:1050C000A046F0BD07239D4300D5B1E0A94200D919
:1050D000AEE000F0A5FAFC235B009D4200D29AE10D
:1050E000690A00D1A8E0042900D94FE13823984685
:1050F000A90988443931CB00082252429446A94F6D
:10510000FB189C446346DC68A44514D003239946ED
:105110000B0061469C4607E0E068002A00DBFAE0ED
:10512000814200D1FBE004004A46636893435A1B66
:105130000F2AF1DD41463A003C690832944200D121
:10514000D8E0032063688343581B0F2800DD66E125
:105150003A617A610028A4DA7A6890468022920047
:10516000934200D3E3E0DA08580901238340404624
:1051700018438046D300DB199A687860E360A26028
:105180009C60D46001208B10984040455CD8434619
:1051900003420AD1032399434346400004310342AA
:1051A00003D1400004310342FBD00323B3469C46A5
:1051B0000E00B8460190F00040440100B246CB68B2
:1051C0000BE064465A681F00A243DB68541B0F2C97
:1051D00000DDF3E0002C00DB0DE19942F1D1012369
:1051E0009946CA44534608319B07E8D1032205E09B
:1051F00003680838013E834200D00AE23242F7D108
:105200004346019A5B68934342465360019A5200B9
:1052100001929A4216D8002A06D113E00422914640
:10522000019ACA44520001921342F7D05646C2E78F
:105230000C23002033603EE780233F22402190462C
:105240009B0059E75E4647460322BC686368934368
:105250009946AB4202D35B1B0F2B4EDC23004B4421
:105260000293514B08201B6810335B19019300F027
:1052700057FA4E4903900B688B46013306D084469B
:10528000019B4242013B634413400193300001996A
:1052900000F02AFA03008046013300D1DDE0029BD2
:1052A000834200D9D7E0019A414B944619689A4647
:1052B0006144039A1960029B0800013A434500D0FB
:1052C000EAE04346134200D0E6E0BB6898466346F6
:1052D0004B441A0001231A4343465A60354B186861
:1052E000884200D21960344B1868884200D2196095
:1052F0004446B4E07B68984644E701222900134302
:105300001143651961603000BD606B6000F090F979
:1053100020000830CFE6A268D0608260C1E6614616
:1053200009E7DC680231A34200D104E7B2E65A0A79
:10533000042A00D888E0142A00D90FE110005B305D
:1053400082465C32D200082040428446BA18944417
:10535000624692680B308146944500D1E5E0080032
:10536000A2466146844602E09268914204D04C46CF
:105370005068A0439842F7D8D368614654469C468B
:105380006346A260E3609C60D460FBE6142973D995
:10539000542900D9EBE06E239846290B88446F31DD
:1053A000CB00A9E6E802002074090020E0020020FA
:1053B000440900206C09002070090020BA46012031
:1053C000514684464919054350464560856847461D
:1053D0006046EB605E469D605346396179612043CB
:1053E00008374860CF6030008F609C5000F020F993
:1053F000504608305FE6BA4601205E465244516886
:1054000001435160BA683000D3609A6000F010F92F
:10541000380008304FE62B00E908083332E66119FE
:10542000884601218C460D434146656039617961AA
:10543000CA608A60624602434A60E050300000F071
:10544000F7F82000083036E69A0910003932383073
:105450008246D20077E7BC4214D0BC68626803235E
:105460009A43531BAA4202D30F2B00DD45E73000BD
:1054700000F0DEF800201EE65B23984688445C318D
:10548000CB0039E6644B9A461868019B9C4653460C
:1054900060441860039B5A1E5B461B68013371D041
:1054A000434602995B1A51461B180B60072341467D
:1054B000404619400291184240D003980133844677
:1054C0005B1A0199984441440191634411405B1A6D
:1054D0001A4011003000934600F006F9431C78D0C2
:1054E0004346C01A03005B440193534619680120E8
:1054F000594419604346019ABB6002435A60BC425A
:1055000000D1EBE64B460F2B40D907220C3B9343CF
:105510006268024005201A436260E21850609060A1
:105520000F2B4BD843465A68D8E6534698100123B0
:105530008340404618438046786021E7019B0399E9
:1055400043441340CB1A1A4011003000934600F038
:10555000CBF8431CC4D100239B46C6E7542A18D875
:105560001A0B10006F326E308246D200EBE6AA238F
:105570005B00994218D8DD3B9846E90B88447831A6
:10558000CB00B9E55B46414619608FE7434658605A
:105590006DE7AA204000824226D8DA0B100078324C
:1055A00077308246D200CEE61C4B994226D87C2327
:1055B0009846A90C88447D31CB009DE52100300040
:1055C000083100F043F953461968BB6898465A6899
:1055D00084E6019A029B94464246083B63449B1A28
:1055E000019300239B4680E70C4882420CD89A0C1A
:1055F00010007D327C308246D200A4E6FE237E225B
:105600007F2190469B0077E5FE227E209200824615
:1056100099E643465B68F9E544090020540500001B
:1056200010B5024800F078F810BDC04640090020CF
:1056300010B5024800F072F810BDC04640090020C5
:105640000022034B1B68983318605A607047C046AD
:10565000F0060020094B10B51C68094A98342068F0
:105660006168084BFEF77CFF012200238018594136
:10567000206061604800400810BDC046F006002070
:105680002D7F954C2DF4515870B501250B4B84B0EE
:105690006D4269460600002218680095019500F0E9
:1056A0000FF82900002801DB009D0199002E01D090
:1056B00035607160280004B070BDC046F00600205F
:1056C000002370B5074D0400080011002B60FDF7A2
:1056D00021FA431C00D070BD2B68002BFBD0236047
:1056E000F9E7C0463C0B0020002370B5064C0500CE
:1056F00008002360FDF732F9431C00D070BD236819
:10570000002BFBD02B60F9E73C0B0020014B186805
:105710007047C046F00600207047C0467047C0463C
:10572000802310B55B01082801D1180010BDFFF7D8
:10573000EDFF16230360173BF7E7C04610B583075C
:105740000AD00300032102E001330B4205D01A788E
:10575000002AF9D1181A10BD030019680C4A0D4C23
:105760008A188A4322420FD15968094A04338A1899
:105770008A43224208D15968054A04338A188A4369
:105780002242F1D000E001331A78002AFBD1E1E790
:10579000FFFEFEFE80808080F0B5C646060000B5A4
:1057A00008200D00FFF7BCFF04003000FFF738FFB2
:1057B000234B210098469B685F6803239F43380072
:1057C0001138401B0019FEF733FB451E6543AC4200
:1057D00008DC00213000FFF787FF43469B68DB1998
:1057E000984206D03000FFF723FF002080BCB84667
:1057F000F0BD30006942FFF777FF01300ED0012283
:1058000043467F1B9B6817430E4A5F601368300056
:105810005B1B1360FFF70CFF0120E7E7002130005E
:10582000FFF762FF43469A68831A0F2BDADD064CB6
:1058300004492468001B086001210B435360D1E731
:10584000E802002044090020E0020020F8B5CE461E
:10585000474605000C0080B5002957D0FFF7E0FE51
:10586000012321009C46083948686246030003244E
:105870009343CF187A68654EA243B468BC4200D106
:1058800070E0BC18A14664467A60044221D10868E1
:10589000091A1B1888688046484640682040340032
:1058A00008348146A04551D04046CC68C460A06011
:1058B0004846002811D19B185548BA68824200D149
:1058C0007FE0F868D060826001221A434A60CB50C2
:1058D00007E0484640682042EDD062461A434A60DD
:1058E0003B6080229200934214D2DA0858090123C7
:1058F0008340706803437360D3009B199A68CB6040
:105900008A609960D1602800FFF792FEC0BCB9465A
:10591000B046F8BD5C0A042C3DD89C0920003934FF
:105920003830E40034192268083C0327944203D13C
:1059300040E09268944203D05068B8439842F8D847
:10594000D468CC608A60A160D160DCE7002858D1BF
:10595000B868D218FB68C3609860634613434B6015
:105960008A50D0E79A186346034206D10B68C91AD9
:105970008868D218CB68C3609860012313434B60DA
:10598000244BB1601B689342BDD8234B2800196893
:10599000FFF702FFB7E7142C07D9542C1AD81C0BB9
:1059A00020006F346E30E400BCE720005C345B30D4
:1059B000E400B7E7012380108340706803437360FD
:1059C000BFE7D1609160CA608A6001221A434A60D1
:1059D000CB5098E7AA225200944205D8DC0B200055
:1059E00078347730E4009DE70C4A944205D89C0C4B
:1059F00020007D347C30E40094E7FE247E20A40067
:105A000090E762461A434A603B607CE7E802002068
:105A1000F0020020E4020020740900205405000078
:105A2000F8B5C0460000000001B40248844601BC3D
:105A3000604700BFC901002001B40248844601BC90
:105A4000604700BF1502002001B40248844601BC33
:105A5000604700BF1502002001B40248844601BC23
:085A6000604700BF9501002022
:105A680054454D504F2052454143414F00000000DE
:105A78004A4F59535449434B20444952454954418C
:105A880000000000455354494D554C4F205649538A
:105A980055414C004A4F59535449434B20455351A3
:105AA8005545524441000000455354494D554C4F0B
:105AB80020534F4E4F524F0076616C6F7220616ECB
:105AC800616CC3B36769636F20783A20256400006E
